{
    "contractName": "Electricity",
    "abi": [
        {
            "inputs": [],
            "payable": true,
            "stateMutability": "payable",
            "type": "constructor"
        },
        {
            "constant": true,
            "inputs": [],
            "name": "contractBalance",
            "outputs": [
                {
                    "internalType": "uint256",
                    "name": "",
                    "type": "uint256"
                }
            ],
            "payable": false,
            "stateMutability": "view",
            "type": "function"
        },
        {
            "constant": true,
            "inputs": [],
            "name": "retailer",
            "outputs": [
                {
                    "internalType": "address",
                    "name": "",
                    "type": "address"
                }
            ],
            "payable": false,
            "stateMutability": "view",
            "type": "function"
        },
        {
            "constant": true,
            "inputs": [],
            "name": "retailerBalance",
            "outputs": [
                {
                    "internalType": "uint256",
                    "name": "",
                    "type": "uint256"
                }
            ],
            "payable": false,
            "stateMutability": "view",
            "type": "function"
        }
    ],
    "bytecode": "0x6080604052336000806101000a81548173ffffffffffffffffffffffffffffffffffffffff021916908373ffffffffffffffffffffffffffffffffffffffff1602179055506000809054906101000a900473ffffffffffffffffffffffffffffffffffffffff1673ffffffffffffffffffffffffffffffffffffffff163160018190555047600281905550610127806100996000396000f3fe6080604052348015600f57600080fd5b5060043610603c5760003560e01c806325e6f2731460415780634c1249fc14605d5780638b7afe2e1460a5575b600080fd5b604760c1565b6040518082815260200191505060405180910390f35b606360c7565b604051808273ffffffffffffffffffffffffffffffffffffffff1673ffffffffffffffffffffffffffffffffffffffff16815260200191505060405180910390f35b60ab60ec565b6040518082815260200191505060405180910390f35b60015481565b6000809054906101000a900473ffffffffffffffffffffffffffffffffffffffff1681565b6002548156fea265627a7a7231582023aeae95058f02147125aa2e895673d8ff5014029c4f7c984eb2806f33a8bc0864736f6c63430005100032",
    "source": "pragma solidity >=0.4.21 <0.7.0;\n\ncontract Electricity {\n    address public retailer;\n    uint256 public retailerBalance;\n    uint256 public contractBalance;\n\n    constructor() public payable{\n        retailer = msg.sender;\n        // retailerBalance = retailer.balance/100000000000000000;\n        retailerBalance = retailer.balance;\n        contractBalance = address(this).balance;\n\n    }\n}\n",
    "sourcePath": "/home/ripudaman/Desktop/GIT/Blockchain/Electricity-Management/contracts/Electricity.sol",
    "compiler": {
        "name": "solc",
        "version": "0.5.16+commit.9c3226ce.Emscripten.clang"
    },
    "schemaVersion": "3.2.0",
    "updatedAt": "2020-06-30T21:24:38.753Z",
    "networkType": "ethereum",
    "devdoc": {
        "methods": {}
    },
    "userdoc": {
        "methods": {}
    }
}