{
  "contractName": "Electricity",
  "abi": [
    {
      "inputs": [],
      "payable": false,
      "stateMutability": "nonpayable",
      "type": "constructor"
    },
    {
      "constant": true,
      "inputs": [],
      "name": "admin",
      "outputs": [
        {
          "internalType": "address",
          "name": "",
          "type": "address"
        }
      ],
      "payable": false,
      "stateMutability": "view",
      "type": "function"
    },
    {
      "constant": true,
      "inputs": [],
      "name": "adminBal",
      "outputs": [
        {
          "internalType": "uint256",
          "name": "",
          "type": "uint256"
        }
      ],
      "payable": false,
      "stateMutability": "view",
      "type": "function"
    },
    {
      "constant": true,
      "inputs": [
        {
          "internalType": "address",
          "name": "_tokenDist",
          "type": "address"
        }
      ],
      "name": "getAddress2Bal",
      "outputs": [
        {
          "internalType": "uint256",
          "name": "",
          "type": "uint256"
        }
      ],
      "payable": false,
      "stateMutability": "view",
      "type": "function"
    },
    {
      "constant": false,
      "inputs": [
        {
          "internalType": "address",
          "name": "_cust",
          "type": "address"
        }
      ],
      "name": "addCustomer",
      "outputs": [
        {
          "internalType": "address",
          "name": "",
          "type": "address"
        }
      ],
      "payable": true,
      "stateMutability": "payable",
      "type": "function"
    },
    {
      "constant": true,
      "inputs": [
        {
          "internalType": "address",
          "name": "_add",
          "type": "address"
        }
      ],
      "name": "gettingCustBal",
      "outputs": [
        {
          "internalType": "uint256",
          "name": "",
          "type": "uint256"
        }
      ],
      "payable": false,
      "stateMutability": "view",
      "type": "function"
    },
    {
      "constant": false,
      "inputs": [
        {
          "internalType": "address",
          "name": "_add",
          "type": "address"
        },
        {
          "internalType": "uint256",
          "name": "amt",
          "type": "uint256"
        }
      ],
      "name": "buyElec",
      "outputs": [],
      "payable": true,
      "stateMutability": "payable",
      "type": "function"
    },
    {
      "constant": true,
      "inputs": [
        {
          "internalType": "address",
          "name": "_add",
          "type": "address"
        }
      ],
      "name": "getElec",
      "outputs": [
        {
          "internalType": "uint256",
          "name": "",
          "type": "uint256"
        }
      ],
      "payable": false,
      "stateMutability": "view",
      "type": "function"
    },
    {
      "constant": false,
      "inputs": [
        {
          "internalType": "address",
          "name": "_add",
          "type": "address"
        },
        {
          "internalType": "uint256",
          "name": "elecUnit",
          "type": "uint256"
        }
      ],
      "name": "spendElec",
      "outputs": [
        {
          "internalType": "bool",
          "name": "",
          "type": "bool"
        }
      ],
      "payable": false,
      "stateMutability": "nonpayable",
      "type": "function"
    },
    {
      "constant": false,
      "inputs": [
        {
          "internalType": "address",
          "name": "_add",
          "type": "address"
        }
      ],
      "name": "closeAcc",
      "outputs": [
        {
          "internalType": "bool",
          "name": "",
          "type": "bool"
        }
      ],
      "payable": false,
      "stateMutability": "nonpayable",
      "type": "function"
    }
  ],
  "bytecode": "0x608060405234801561001057600080fd5b50336000806101000a81548173ffffffffffffffffffffffffffffffffffffffff021916908373ffffffffffffffffffffffffffffffffffffffff1602179055506000809054906101000a900473ffffffffffffffffffffffffffffffffffffffff1673ffffffffffffffffffffffffffffffffffffffff16316001819055506108218061009f6000396000f3fe6080604052600436106100865760003560e01c80639ecfe016116100595780639ecfe016146101f3578063ad973d7414610241578063eb1a3608146102c5578063f851a4401461032e578063fe0246021461038557610086565b80632507deea1461008b5780633c929b30146100f05780634a8d241c146101555780638091409914610180575b600080fd5b34801561009757600080fd5b506100da600480360360208110156100ae57600080fd5b81019080803573ffffffffffffffffffffffffffffffffffffffff1690602001909291905050506103ea565b6040518082815260200191505060405180910390f35b3480156100fc57600080fd5b5061013f6004803603602081101561011357600080fd5b81019080803573ffffffffffffffffffffffffffffffffffffffff169060200190929190505050610410565b6040518082815260200191505060405180910390f35b34801561016157600080fd5b5061016a610459565b6040518082815260200191505060405180910390f35b34801561018c57600080fd5b506101d9600480360360408110156101a357600080fd5b81019080803573ffffffffffffffffffffffffffffffffffffffff1690602001909291908035906020019092919050505061045f565b604051808215151515815260200191505060405180910390f35b61023f6004803603604081101561020957600080fd5b81019080803573ffffffffffffffffffffffffffffffffffffffff169060200190929190803590602001909291905050506104fb565b005b6102836004803603602081101561025757600080fd5b81019080803573ffffffffffffffffffffffffffffffffffffffff169060200190929190505050610609565b604051808273ffffffffffffffffffffffffffffffffffffffff1673ffffffffffffffffffffffffffffffffffffffff16815260200191505060405180910390f35b3480156102d157600080fd5b50610314600480360360208110156102e857600080fd5b81019080803573ffffffffffffffffffffffffffffffffffffffff16906020019092919050505061066e565b604051808215151515815260200191505060405180910390f35b34801561033a57600080fd5b5061034361077e565b604051808273ffffffffffffffffffffffffffffffffffffffff1673ffffffffffffffffffffffffffffffffffffffff16815260200191505060405180910390f35b34801561039157600080fd5b506103d4600480360360208110156103a857600080fd5b81019080803573ffffffffffffffffffffffffffffffffffffffff1690602001909291905050506107a3565b6040518082815260200191505060405180910390f35b6000808273ffffffffffffffffffffffffffffffffffffffff1631905080915050919050565b6000600260008373ffffffffffffffffffffffffffffffffffffffff1673ffffffffffffffffffffffffffffffffffffffff168152602001908152602001600020549050919050565b60015481565b6000816001540160018190555081600360008573ffffffffffffffffffffffffffffffffffffffff1673ffffffffffffffffffffffffffffffffffffffff1681526020019081526020016000205403600360008573ffffffffffffffffffffffffffffffffffffffff1673ffffffffffffffffffffffffffffffffffffffff168152602001908152602001600020819055506001905092915050565b80600360008473ffffffffffffffffffffffffffffffffffffffff1673ffffffffffffffffffffffffffffffffffffffff1681526020019081526020016000205401600360008473ffffffffffffffffffffffffffffffffffffffff1673ffffffffffffffffffffffffffffffffffffffff1681526020019081526020016000208190555080600260008473ffffffffffffffffffffffffffffffffffffffff1673ffffffffffffffffffffffffffffffffffffffff1681526020019081526020016000205403600260008473ffffffffffffffffffffffffffffffffffffffff1673ffffffffffffffffffffffffffffffffffffffff168152602001908152602001600020819055505050565b60008173ffffffffffffffffffffffffffffffffffffffff1631600260008473ffffffffffffffffffffffffffffffffffffffff1673ffffffffffffffffffffffffffffffffffffffff16815260200190815260200160002081905550819050919050565b6000600360008373ffffffffffffffffffffffffffffffffffffffff1673ffffffffffffffffffffffffffffffffffffffff16815260200190815260200160002054600260008473ffffffffffffffffffffffffffffffffffffffff1673ffffffffffffffffffffffffffffffffffffffff1681526020019081526020016000205401600260008473ffffffffffffffffffffffffffffffffffffffff1673ffffffffffffffffffffffffffffffffffffffff168152602001908152602001600020819055506000600360008473ffffffffffffffffffffffffffffffffffffffff1673ffffffffffffffffffffffffffffffffffffffff16815260200190815260200160002081905550919050565b6000809054906101000a900473ffffffffffffffffffffffffffffffffffffffff1681565b6000600360008373ffffffffffffffffffffffffffffffffffffffff1673ffffffffffffffffffffffffffffffffffffffff16815260200190815260200160002054905091905056fea265627a7a72315820f4bbf1d406c27e2f21361c765d12dade32f8122c427e84392b00f02d588f557364736f6c63430005100032",
  "source": "pragma solidity >=0.4.21 <0.7.0;\n\n// pragma solidity 0.5.17;\n\ncontract Electricity {\n    address public admin;\n    uint256 public adminBal;\n    mapping(address => uint256) custAdd2Bal;\n    mapping(address => uint256) custAdd2Elec;\n\n    constructor() public {\n        admin = msg.sender;\n        adminBal = admin.balance;\n    }\n\n    function getAddress2Bal(address _tokenDist) public view returns (uint256) {\n        uint256 b = _tokenDist.balance;\n        return b;\n    }\n\n    function addCustomer(address _cust) public payable returns (address) {\n        custAdd2Bal[_cust] = _cust.balance;\n        return _cust;\n    }\n\n    function gettingCustBal(address _add) public view returns (uint256) {\n        return custAdd2Bal[_add];\n    }\n\n    function buyElec(address _add, uint256 amt) public payable {\n        custAdd2Elec[_add] = custAdd2Elec[_add] + amt;\n        custAdd2Bal[_add] = custAdd2Bal[_add] - amt;\n    }\n\n    function getElec(address _add) public view returns (uint256) {\n        return custAdd2Elec[_add];\n    }\n\n    function spendElec(address _add, uint256 elecUnit) public returns (bool) {\n        adminBal = adminBal + elecUnit;\n        custAdd2Elec[_add] = custAdd2Elec[_add] - elecUnit;\n        return true;\n    }\n\n    function closeAcc(address _add) public returns (bool) {\n        custAdd2Bal[_add] = custAdd2Bal[_add] + custAdd2Elec[_add];\n        custAdd2Elec[_add] = 0;\n    }\n}\n",
  "sourcePath": "/home/ripudaman/Desktop/GIT/Blockchain/Electricity-Management/contracts/Electricity.sol",
  "compiler": {
    "name": "solc",
    "version": "0.5.16+commit.9c3226ce.Emscripten.clang"
  },
  "schemaVersion": "3.2.0",
  "updatedAt": "2020-07-05T21:07:52.028Z",
  "networkType": "ethereum",
  "devdoc": {
    "methods": {}
  },
  "userdoc": {
    "methods": {}
  }
}